:020000040800F2
:100000000028002085610008CD610008CD6100084E
:10001000CD610008CD610008CD610008000000003E
:10002000000000000000000000000000CD6100089A
:10003000CD61000800000000CD610008FF44000809
:10004000CD610008CD610008CD610008CD610008D8
:10005000CD610008CD610008154700081F47000862
:1000600029470008334700083D470008CD610008D4
:10007000CD610008CD610008CD610008CD610008A8
:10008000CD610008CD610008CD610008CD61000898
:10009000CD610008CD610008CD6100084747000828
:1000A000CD610008113F0008CD610008253F000820
:1000B000393F00084D3F000800000000CD610008F6
:1000C000CD6100080000000000000000CD610008C4
:1000D00000000000515400086954000800000000AE
:1000E0005D470008CD610008CD61000800000000F8
:1000F0000000000000000000000000000000000000
:0C01000000000000000000005FF808F1A3
:10011000034613F8012B002AFBD1181A0138704747
:1001200081F0004102E000BF83F0004330B54FEAA8
:1001300041044FEA430594EA050F08BF90EA020F15
:100140001FBF54EA000C55EA020C7FEA645C7FEAA8
:10015000655C00F0E2804FEA5454D4EB5555B8BFCB
:100160006D420CDD2C4480EA020281EA030382EA3C
:10017000000083EA010180EA020281EA0303362DCE
:1001800088BF30BD11F0004F4FEA01314FF4801CA1
:100190004CEA113102D0404261EB410113F0004FB3
:1001A0004FEA03334CEA133302D0524263EB43036A
:1001B00094EA050F00F0A780A4F10104D5F1200E08
:1001C0000DDB02FA0EFC22FA05F2801841F1000163
:1001D00003FA0EF2801843FA05F359410EE0A5F137
:1001E00020050EF1200E012A03FA0EFC28BF4CF068
:1001F000020C43FA05F3C01851EBE37101F000451E
:1002000007D54FF0000EDCF1000C7EEB00006EEB2A
:100210000101B1F5801F1BD3B1F5001F0CD34908B4
:100220005FEA30004FEA3C0C04F101044FEA44520B
:1002300012F5800F80F09A80BCF1004F08BF5FEA92
:10024000500C50F1000041EB045141EA050130BD72
:100250005FEA4C0C404141EB0101013C28BFB1F584
:10026000801FE9D291F0000F04BF01460020B1FACF
:1002700081F308BF2033A3F10B03B3F120020CDAA2
:100280000C3208DD02F1140CC2F10C0201FA0CF080
:1002900021FA02F10CE002F11402D8BFC2F1200CE5
:1002A00001FA02F120FA0CFCDCBF41EA0C0190409B
:1002B000E41AA2BF01EB0451294330BD6FEA0404E4
:1002C0001F3C1CDA0C340EDC04F11404C4F12002CF
:1002D00020FA04F001FA02F340EA030021FA04F3E1
:1002E00045EA030130BDC4F10C04C4F1200220FA38
:1002F00002F001FA04F340EA0300294630BD21FA76
:1003000004F0294630BD94F0000F83F4801306BF3B
:1003100081F480110134013D4EE77FEA645C18BF2F
:100320007FEA655C29D094EA050F08BF90EA020FC6
:1003300005D054EA000C04BF1946104630BD91EABE
:10034000030F1EBF0021002030BD5FEA545C05D1C1
:100350004000494128BF41F0004130BD14F5800400
:100360003CBF01F5801130BD01F0004545F0FE4174
:1003700041F470014FF0000030BD7FEA645C1ABFA9
:10038000194610467FEA655C1CBF0B46024650EAE0
:10039000013406BF52EA033591EA030F41F400210C
:1003A00030BD00BF90F0000F04BF0021704730B592
:1003B0004FF4806404F132044FF000054FF0000167
:1003C00050E700BF90F0000F04BF0021704730B528
:1003D0004FF4806404F1320410F0004548BF4042FD
:1003E0004FF000013EE700BF42004FEAE2014FEA52
:1003F00031014FEA02701FBF12F07F4393F07F4F2D
:1004000081F06051704732F07F4208BF704793F02F
:100410007F4F04BF41F40021704730B54FF4607442
:1004200001F0004521F000411CE700BF50EA010245
:1004300008BF704730B54FF000050AE050EA0102EE
:1004400008BF704730B511F0004502D5404261EB5E
:1004500041014FF4806404F132045FEA915C3FF49F
:10046000D8AE4FF003025FEADC0C18BF03325FEA3C
:10047000DC0C18BF033202EBDC02C2F1200300FAED
:1004800003FC20FA02F001FA03FE40EA0E0021FA12
:1004900002F11444BDE600BF70B54FF0FF0C4CF400
:1004A000E06C1CEA11541DBF1CEA135594EA0C0FB2
:1004B00095EA0C0F00F0DEF82C4481EA030621EAED
:1004C0004C5123EA4C5350EA013518BF52EA033528
:1004D00041F4801143F4801338D0A0FB02CE4FF0DA
:1004E0000005E1FB02E506F00042E0FB03E54FF00A
:1004F0000006E1FB03569CF0000F18BF4EF0010E02
:10050000A4F1FF04B6F5007F64F5407404D25FEAFD
:100510004E0E6D4146EB060642EAC62141EA5551B0
:100520004FEAC52040EA5E504FEACE2EB4F1FD0CF2
:1005300088BFBCF5E06F1ED8BEF1004F08BF5FEA70
:10054000500E50F1000041EB045170BD06F0004622
:1005500046EA010140EA020081EA0301B4EB5C04CF
:10056000C2BFD4EB0C0541EA045170BD41F48011C7
:100570004FF0000E013C00F3AB8014F1360FDEBFEC
:10058000002001F0004170BDC4F10004203C35DAC8
:100590000C341BDC04F11404C4F1200500FA05F34B
:1005A00020FA04F001FA05F240EA020001F00042EC
:1005B00021F0004110EBD37021FA04F642EB060162
:1005C0005EEA430E08BF20EAD37070BDC4F10C048C
:1005D000C4F1200500FA04F320FA05F001FA04F250
:1005E00040EA020001F0004110EBD37041F100013C
:1005F0005EEA430E08BF20EAD37070BDC4F1200547
:1006000000FA05F24EEA020E20FA04F301FA05F2AE
:1006100043EA020321FA04F001F0004121FA04F256
:1006200020EA020000EBD3705EEA430E08BF20EA26
:10063000D37070BD94F0000F0FD101F00046400060
:1006400041EB010111F4801F08BF013CF7D041EAE2
:10065000060195F0000F18BF704703F000465200E6
:1006600043EB030313F4801F08BF013DF7D043EAB7
:100670000603704794EA0C0F0CEA135518BF95EA6D
:100680000C0F0CD050EA410618BF52EA4306D1D1F4
:1006900081EA030101F000414FF0000070BD50EA13
:1006A000410606BF1046194652EA430619D094EA9D
:1006B0000C0F02D150EA013613D195EA0C0F05D187
:1006C00052EA03361CBF104619460AD181EA0301DB
:1006D00001F0004141F0FE4141F470014FF0000093
:1006E00070BD41F0FE4141F4780170BD70B54FF02E
:1006F000FF0C4CF4E06C1CEA11541DBF1CEA1355AE
:1007000094EA0C0F95EA0C0F00F0A7F8A4EB05048F
:1007100081EA030E52EA03354FEA013100F0888086
:100720004FEA03334FF0805545EA131343EA12634F
:100730004FEA022245EA111545EA10654FEA002604
:100740000EF000419D4208BF964244F1FD0404F5BD
:10075000407402D25B084FEA3202B61A65EB030519
:100760005B084FEA32024FF480104FF4002CB6EBD6
:10077000020E75EB030E22BFB61A754640EA0C0056
:100780005B084FEA3202B6EB020E75EB030E22BF96
:10079000B61A754640EA5C005B084FEA3202B6EBD7
:1007A000020E75EB030E22BFB61A754640EA9C0096
:1007B0005B084FEA3202B6EB020E75EB030E22BF66
:1007C000B61A754640EADC0055EA060E18D04FEA24
:1007D000051545EA16754FEA06164FEAC30343EAC4
:1007E00052734FEAC2025FEA1C1CC0D111F4801F91
:1007F0000BD141EA00014FF000004FF0004CB6E78A
:1008000011F4801F04BF01430020B4F1FD0C88BF28
:10081000BCF5E06F3FF6AFAEB5EB030C04BFB6EB33
:10082000020C5FEA500C50F1000041EB045170BD26
:100830000EF0004E4EEA113114EB5C04C2BFD4EB53
:100840000C0541EA045170BD41F480114FF0000ED7
:10085000013C90E645EA060E8DE60CEA135594EA53
:100860000C0F08BF95EA0C0F3FF43BAF94EA0C0F56
:100870000AD150EA01347FF434AF95EA0C0F7FF4CB
:1008800025AF104619462CE795EA0C0F06D152EA1F
:1008900003353FF4FDAE1046194622E750EA410603
:1008A00018BF52EA43067FF4C5AE50EA41047FF414
:1008B0000DAF52EA43057FF4EBAE12E74FEA410277
:1008C000B2F1E04324BFB3F5001CDCF1FE5C0DD9AE
:1008D00001F0004C4FEAC0024CEA5070B2F1004FF8
:1008E00040EB830008BF20F00100704711F0804FFB
:1008F00021D113F13872BCBF01F00040704741F4C0
:1009000080114FEA5252C2F11802C2F1200C10FAC3
:100910000CF320FA02F018BF40F001004FEAC123A7
:100920004FEAD32303FA0CFC40EA0C0023FA02F34B
:100930004FEA4303CCE77FEA625307D150EA013321
:100940001EBF4FF0FE4040F44000704701F00040F1
:1009500040F0FE4040F40000704700BF80F00040CF
:1009600002E000BF81F0004142001FBF5FEA410387
:1009700092EA030F7FEA226C7FEA236C6AD04FEA87
:100980001262D2EB1363C1BFD218414048404140CC
:10099000B8BF5B42192B88BF704710F0004F40F47E
:1009A000000020F07F4018BF404211F0004F41F49A
:1009B000000121F07F4118BF494292EA030F3FD066
:1009C000A2F1010241FA03FC10EB0C00C3F1200379
:1009D00001FA03F100F0004302D5494260EB400008
:1009E000B0F5000F13D3B0F1807F06D340084FEA73
:1009F000310102F10102FE2A51D2B1F1004F40EB68
:100A0000C25008BF20F0010040EA030070474900CF
:100A100040EB0000013A28BFB0F5000FEDD2B0FA6C
:100A200080FCACF1080CB2EB0C0200FA0CF0AABF8F
:100A300000EBC25052421843BCBFD040184370472D
:100A400092F0000F81F4000106BF80F40000013233
:100A5000013BB5E74FEA41037FEA226C18BF7FEA0A
:100A6000236C21D092EA030F04D092F0000F08BF4C
:100A70000846704790EA010F1CBF0020704712F033
:100A80007F4F04D1400028BF40F00040704712F172
:100A900000723CBF00F50000704700F0004343F0D7
:100AA000FE4040F4000070477FEA226216BF08460D
:100AB0007FEA23630146420206BF5FEA412390EAD0
:100AC000010F40F4800070474FF0000304E000BFC6
:100AD00010F0004348BF40425FEA000C08BF704777
:100AE00043F0964301464FF000001CE050EA01023B
:100AF00008BF70474FF000030AE000BF50EA010250
:100B000008BF704711F0004302D5404261EB41013C
:100B10005FEA010C02BF84460146002043F0B64361
:100B200008BFA3F18053A3F50003BCFA8CF2083A86
:100B3000A3EBC25310DB01FA02FC634400FA02FC8F
:100B4000C2F12002BCF1004F20FA02F243EB020096
:100B500008BF20F00100704702F1200201FA02FCF8
:100B6000C2F1200250EA4C0021FA02F243EB0200EB
:100B700008BF20EADC7070474FF0FF0C1CEAD0522F
:100B80001EBF1CEAD15392EA0C0F93EA0C0F6FD0F0
:100B90001A4480EA010C400218BF5FEA41211ED0CE
:100BA0004FF0006343EA501043EA5111A0FB0131BA
:100BB0000CF00040B1F5000F3EBF490041EAD3718F
:100BC0005B0040EA010062F17F02FD2A1DD8B3F10B
:100BD000004F40EBC25008BF20F00100704790F07A
:100BE000000F0CF0004C08BF49024CEA502040EACC
:100BF00051207F3AC2BFD2F1FF0340EAC250704792
:100C000040F400004FF00003013A5DDC12F1190FCF
:100C1000DCBF00F000407047C2F10002410021FA41
:100C200002F1C2F1200200FA02FC5FEA310040F159
:100C3000000053EA4C0308BF20EADC70704792F0D2
:100C4000000F00F0004C02BF400010F4000F013A0A
:100C5000F9D040EA0C0093F0000F01F0004C02BF05
:100C6000490011F4000F013BF9D041EA0C018FE774
:100C70000CEAD15392EA0C0F18BF93EA0C0F0AD07A
:100C800030F0004C18BF31F0004CD8D180EA0100A0
:100C900000F00040704790F0000F17BF90F0004F39
:100CA000084691F0000F91F0004F14D092EA0C0F1B
:100CB00001D142020FD193EA0C0F03D14B0218BFAE
:100CC000084608D180EA010000F0004040F0FE40F4
:100CD00040F40000704740F0FE4040F44000704790
:100CE0004FF0FF0C1CEAD0521EBF1CEAD15392EA0F
:100CF0000C0F93EA0C0F69D0A2EB030280EA010CFF
:100D000049024FEA402037D04FF0805343EA111197
:100D100043EA10130CF000408B4238BF5B0042F1F5
:100D20007D024FF4000C8B4224BF5B1A40EA0C009A
:100D3000B3EB510F24BFA3EB510340EA5C00B3EBCC
:100D4000910F24BFA3EB910340EA9C00B3EBD10FBA
:100D500024BFA3EBD10340EADC001B0118BF5FEA0C
:100D60001C1CE0D1FD2A3FF650AF8B4240EBC25035
:100D700008BF20F0010070470CF0004C4CEA5020F6
:100D80007F32C2BFD2F1FF0340EAC250704740F445
:100D900000004FF00003013A37E792F0000F00F037
:100DA000004C02BF400010F4000F013AF9D040EAB5
:100DB0000C0093F0000F01F0004C02BF490011F449
:100DC000000F013BF9D041EA0C0195E70CEAD15341
:100DD00092EA0C0F08D142027FF47DAF93EA0C0F28
:100DE0007FF470AF084676E793EA0C0F04D14B020C
:100DF0003FF44CAF08466EE730F0004C18BF31F0BE
:100E0000004CCAD130F000427FF45CAF31F00043B7
:100E10007FF43CAF5FE700BF4FF0FF3C06E000BF50
:100E20004FF0010C02E000BF4FF0010C4DF804CD73
:100E30004FEA40024FEA41037FEA226C18BF7FEA83
:100E4000236C11D001B052EA530C18BF90EA010F85
:100E500058BFB2EB030088BFC81738BF6FEAE17014
:100E600018BF40F0010070477FEA226C02D15FEAB0
:100E7000402C05D17FEA236CE4D15FEA412CE1D01C
:100E80005DF8040B704700BF844608466146FFE7E3
:100E90000FB5FFF7C9FF002848BF10F1000F0FBDC5
:100EA0004DF808EDFFF7F4FF0CBF012000205DF8BE
:100EB00008FB00BF4DF808EDFFF7EAFF34BF012043
:100EC00000205DF808FB00BF4DF808EDFFF7E0FFDC
:100ED00094BF012000205DF808FB00BF4DF808ED2D
:100EE000FFF7D2FF94BF012000205DF808FB00BF90
:100EF0004DF808EDFFF7C8FF34BF012000205DF872
:100F000008FB00BF4FEA40024FEA41037FEA226C30
:100F100002D15FEA402C08D17FEA236C02D15FEA5C
:100F2000412C02D14FF0000070474FF00100704794
:100F300042000ED2B2F1FE4F0BD34FF09E03B3EB43
:100F4000126209D44FEA002343F0004323FA02F06F
:100F500070474FF00000704712F1610F01D142025B
:100F600002D14FF0FF3070474FF00000704700BFD4
:100F700010B5054C237833B9044B13B10448AFF3D3
:100F800000800123237010BD10010020000000002C
:100F9000E073000808B5034B1BB103490348AFF3E6
:100FA000008008BD0000000014010020E07300086C
:100FB00008B50368984708BD08B5124B1B7803B9FC
:100FC00008BD114B1A7882F001021A701978C220FC
:100FD00005F0F0F90D4B1A6801321A601A680C4BD3
:100FE000A3FB02135B09642101FB1323002BE7D150
:100FF000084B1A7882F001021A701978112005F056
:10100000D9F9DDE7000000203D0100203801002073
:101010001F85EB513C01002010B5B02003F0C2F851
:101020000446034902F0F8FF024B1C6010BD00BFEC
:10103000002C01404001002010B50446836813B124
:10104000032201469847204610BD38B504460D4698
:10105000006800F03FFA854201D1204638BD29469C
:10106000206800F075FAF8E730B585B00546134CF6
:10107000206802F01BFD2846FFF75AFF01460222B6
:10108000206802F019FF0023009301930293039359
:101090000B4B00930B4B03930B4B02936946206859
:1010A00003F067F86846FFF7C7FF206802F03EFECE
:1010B000064B01221A7005B030BD00BF4001002070
:1010C000B90F0008B10F0008CB1200080000002083
:1010D00010B50024074B1C70074B186802F0E6FCA3
:1010E0002146112005F066F92146C22005F062F97B
:1010F00010BD00BF000000204001002038B50446AC
:101100000146C42005F056F90C4B19680C4D0A2213
:10111000284604F091FD0B49284604F004FD3CB933
:101120000949284604F010FD044B00221A6038BD1E
:101130000649034804F008FDF6E700BF3801002027
:10114000C4060020F8730008FC7300081874000837
:10115000F8B517460D461446042608E0284600F068
:10116000B9F9234603F8010B013E01351C46002E58
:10117000F4D13846F8BD000000B583B001AA0021C3
:101180000348FFF7E5FF019803B05DF804FB00BFDB
:101190004401002038B506224FF4E131294804F01B
:1011A00029FC0121112005F091F80121C22005F050
:1011B0008DF80221C62005F089F80221C72005F02C
:1011C00085F80121C42005F081F80120FFF796FF82
:1011D0000C2005F011F80421C02005F077F8FFF786
:1011E000CBFF04460021FFF783FE10B32046FFF734
:1011F0003BFF144D1449284604F095FC0222214679
:10120000284604F0C4FD0F4C1049204604F08BFC26
:101210000F49204604F087FC0E49204604F083FC69
:101220000D49204604F090FC0C49204604F08CFC4B
:1012300038BD0B48FFF718FF0A49024804F084FC48
:10124000E1E700BFC406002034740008847400087D
:1012500094740008A0740008A8740008B47400080E
:10126000CDCC8C3F50740008F0B583B017460D46C6
:101270001446042607E0019514F8011B01A8FFF7A6
:10128000E4FE013E0135002EF5D1384603B0F0BD35
:1012900000B583B0019001AA00210348FFF7E4FFE5
:1012A00003B05DF804FB00BF44010020022A05D80A
:1012B000DFE802F002060800002303600020704708
:1012C0000160FBE70B680360F8E7012A02D10160C7
:1012D0000020704708B5FFF7E9FF002008BD08B5FA
:1012E000FFF79AFE08BD00002DE9F84305F0B6F8B7
:1012F00006465D4804F052F9002838DC5B4B1B6859
:10130000F31A632B53D8C62005F07EF88046B0FA56
:1013100080F56D09C72005F077F88146B0FA80F4B2
:101320006409514F5249384604F0FDFB0A22294610
:10133000384604F072FC0A222146384604F06DFC5F
:10134000B8F1000F05D1B9F1000F67D0B8F1000F67
:1013500071D0B9F1000F72D0464B1B68F31AB3F588
:101360007A7F70D2C82005F07DF8BDE8F8830122AD
:1013700000213D4804F0A0FD04460021FFF7B8FD20
:1013800080B12046FFF770FE2046FFF781FF364D03
:101390003949284604F0C7FB02222146284604F0BA
:1013A000F6FCABE73549304804F0CEFBA6E72F4BFF
:1013B0001E60C02004F03CFF04462B4D30492846F7
:1013C00004F0B1FB0A222146284604F026FC2D4BEE
:1013D0001B68E31A002BB8BF5B42142B93DD04EBB0
:1013E00044008000FFF774FB0546B4F57A6F0FDC0C
:1013F0002846FFF739FE1C4F2349384604F093FB7B
:1014000002222946384604F0BDFC1E4B1C607AE7D8
:101410001E49154804F087FB1D4DE9E71D4B19686F
:101420000A22384604F008FC1B49384604F08CFBBD
:10143000FFF74EFE90E70120FFF760FE8CE70020EB
:10144000FFF75CFE88E70B4B1E60074C13492046F4
:1014500004F069FB124BA3FB06310A2289092046DE
:1014600004F0EEFB7EE700BFC40600203001002040
:101470004075000834010020C4740008DC740008C2
:10148000107500082C0100202C7500081875000844
:101490000000C84238010020487500087475000833
:1014A000D34D6210014B185C704700BF480100200B
:1014B000014B1954704700BF4801002008B54FF494
:1014C00080620249024805F0B8FD08BD007C0008B2
:1014D0004801002010B50446FFF7F0FF2046FFF753
:1014E000E1FF10BD30B587B00023019302930123C3
:1014F0000393134A0492059300F0C2FD08B107B0AC
:1015000030BD104B40F21512DA6001A902A800F0BC
:1015100083FE10B100F0CEFDF1E7094C00250A4B27
:101520009C42F7D2094B2B44D3E9002321460320E8
:1015300000F0FEFD0028EDD108340835EFE700BFCC
:10154000007C0008002002400080000848010020C4
:1015500008B5FFF7ADFFFFF7C5FF08BD70470000F6
:1015600010B504460E4B1A784FF47A73B3FBF2F3BE
:101570000C4A1068B0FBF3F000F096FC68B90F2C31
:1015800001D901200AE0002221464FF0FF3000F08F
:1015900073FC054B1C60002000E0012010BD00BF63
:1015A00001000020240000200400002008B5074AA4
:1015B000136843F010031360032000F04BFC00207D
:1015C000FFF7CEFFFFF7CAFF002008BD0020024052
:1015D000034A1168034B1B780B441360704700BF2C
:1015E0004805002001000020014B1868704700BF2B
:1015F00048050020F0B583B005460C460023019352
:10160000FFF7F2FF2B689A6812F4807F23D1074618
:101610005A6812F4807F03D1DB6A13F4700F29D06B
:10162000504B1E68022001F025FAB6FBF0F62B683D
:1016300019694D4A114236D1D96802F15C42114212
:1016400031D11969494A114240D1DA68484B1A42EE
:101650003ED0292341E0AB6A43F02003AB62002374
:1016600085F82430012003B0F0BD2B681B6813F00F
:10167000020F0FD02B681B6813F0020F4FD1B4F18B
:10168000FF3FF7D0002CF0D0FFF7AEFFC31BA34203
:10169000F0D9EAE7AB6A43F00403AB62002385F8B4
:1016A00024300320DFE71969304A114204D1D96898
:1016B00002F16E4211420DD019692E4A0A405AB900
:1016C000DA682C4B13405BB1FC2306E0292304E0CD
:1016D000142302E0542300E0FC2303FB06F607E09A
:1016E0005423FAE7019BB34210D3019B01330193CA
:1016F000019BB34213D2B4F1FF3FF6D0002CF1D0DE
:10170000FFF772FFC01BA042EFD9EBE7AB6A43F0D3
:101710000403AB62002385F824300320A3E72B6881
:101720006FF012021A60AB6A43F40073AB622B686D
:101730009B6803F46023B3F5602F01D0002092E78B
:10174000287B60B9AB6A23F48073AB62AB6A13F495
:10175000805F88D1AB6A43F00103AB6283E700206E
:1017600081E700BF240000202449922492244912DA
:1017700092244900499224000368D86C7047000005
:1017800030B482B00022019290F82420012A00F0A7
:101790008F800346012280F824204A68062A2DD82B
:1017A0000468606B02EB8202053A4FF01F0C0CFAE2
:1017B00002FC20EA0C000D6805FA02F202436263A3
:1017C0000A68092A38D91C68E06802EB42021E3A0E
:1017D0004FF0070C0CFA02FC20EA0C008D6805FAA9
:1017E00002F20243E2600A68103A012A34D900206A
:1017F000002283F8242002B030BC70470C2A0DD898
:101800000568286B02EB8202233A1F24944020EAE9
:1018100004000C68944020432863D1E70568E86A17
:1018200002EB8202413A1F24944020EA04000C6833
:1018300094402043E862C3E71C68206902EB42023F
:101840004FF0070C0CFA02FC20EA0C008D6805FA38
:1018500002F202432261C6E71A681648824205D0A6
:101860009A6A42F020029A620120C1E7906810F45F
:10187000000F1BD1906840F4000090600A68102AA5
:1018800001D00020B4E70C4A12680C49A1FB0212F7
:10189000920C02EB82025200019202E0019A013A9C
:1018A0000192019A002AF9D10020A1E700209FE7C8
:1018B0000220A0E7002401402400002083DE1B4317
:1018C000806A704730B583B00023019303689A683B
:1018D00012F0010F33D104469A6842F001029A6077
:1018E000184B1B68184AA2FB03239B0C019302E0D0
:1018F000019B013B0193019B002BF9D1FFF774FE83
:10190000054623689B6813F0010F16D1FFF76CFEA4
:10191000431B022BF5D923689B6813F0010FF0D10C
:10192000A36A43F01003A362E36A43F00103E36296
:10193000002384F82430012002E0002000E0002091
:1019400003B030BD2400002083DE1B4390F8243018
:10195000012B68D010B50446012380F82430FFF72E
:10196000B1FF00285BD1A36A23F4407323F0010385
:1019700043F48073A36223682C4A934227D0A26A5F
:1019800022F48012A2625A6812F4806F05D0A26A13
:1019900022F4405242F48052A262A26A12F4805FA2
:1019A0002BD0E26A22F00602E262002284F82420B0
:1019B0006FF002021A6023689A6802F46022B2F59E
:1019C000602F1DD09A6842F480129A602AE0A2F536
:1019D0008062526812F4702FD1D0A26A42F4801251
:1019E000A262134A526812F4806FD6D0A26A22F41F
:1019F000405242F48052A262CFE70022E262D4E772
:101A00000A4A934204D09A6842F4A0029A6009E01C
:101A1000A2F58062526812F4702FD3D1F3E700234D
:101A200084F8243010BD0220704700BF0028014018
:101A30000024014038B503689A6812F0010F01D103
:101A4000002038BD04469A6822F001029A60FFF730
:101A5000CBFD054623689B6813F0010F13D0FFF7F9
:101A6000C3FD431B022BF5D923689B6813F0010FBC
:101A7000F0D0A36A43F01003A362E36A43F00103CA
:101A8000E3620120DDE70020DBE7000000287BD0D7
:101A900070B50446836A002B4DD02046FFF7CAFF7D
:101AA000A36A13F0100369D1002867D1A26A22F457
:101AB000885222F0020242F00202A2626268E169E8
:101AC0000A43217B42EA4102A568B5F5807F02D036
:101AD000012D36D01D46267D012E35D02668716831
:101AE00021F46941294371602568AE682749314076
:101AF0001143A960A168B1F5807F01D0012902D10D
:101B00002369013B1B052568E96A21F470010B4339
:101B1000EB62236899681E4B0B409A4225D0A36A5A
:101B200023F0120343F01003A362E36A43F00103BE
:101B3000E362012027E0C36280F8243002F0B2FBA8
:101B4000ABE74FF48075C6E731B9A169013945EAC1
:101B5000413141F40065C1E7A16A41F02001A16271
:101B6000E16A41F00101E162B8E70023E362A36AA0
:101B700023F0030343F00103A36204E0A36A43F0EC
:101B80001003A362012070BD01207047FDF7E1FF43
:101B9000FE0E1FFF38B5002868D00446836A43F064
:101BA00002038362FFF746FF054620B1002384F855
:101BB0002430284638BD23686FF01F021A6022685F
:101BC00051682B4B0B40536022689168294B0B40A6
:101BD00093602268D36803F07F43D360226813695F
:101BE00003F040431361226853696FF30B035361A1
:101BF000226893696FF30B0393612268D3696FF3D3
:101C00000B03D3612268136A6FF30B03136222681C
:101C1000536A6FF30B0353622268936A6FF30B03EB
:101C200093622268D36A03F07F43D3622268D36A47
:101C300003F07F43D3622268136B03F040431363C6
:101C40002268536B03F0404353632268936B6FF336
:101C5000150393632268936B6FF315039363204618
:101C600002F056FB0023E362A3629FE70125A0E791
:101C700000003FFFF00601FF90F82430012B13D045
:101C800010B50446012380F82430FFF7D3FE38B99D
:101C9000A36A23F4885323F0010343F00103A362F2
:101CA000002384F8243010BD0220704770B582B044
:101CB0000023019390F82430012B72D004460123B5
:101CC00080F82430FFF7B6FE2046FFF7FBFD0546FF
:101CD00028B1002384F82430284602B070BDA36ADE
:101CE00023F4885323F0020343F00203A3622E4B34
:101CF0001E68022000F0BEFEB6FBF0F676000196EC
:101D000002E0019B013B0193019B002BF9D122686A
:101D1000936843F008039360FFF766FC0646236868
:101D20009A6812F0080F14D0FFF75EFC801B0A2897
:101D3000F5D923689B6813F0080FF0D0A36A23F04D
:101D4000120343F01003A362002384F8243001251A
:101D5000C2E79A6842F004029A60FFF745FC064623
:101D600023689B6813F0040F14D0FFF73DFC801B21
:101D70000A28F5D923689B6813F0040FF0D0A36AF2
:101D800023F0120343F01003A362002384F82430ED
:101D90000125A1E7A36A23F0030343F00103A36233
:101DA00097E7022598E700BF24000020002807DB02
:101DB00000F01F02400901239340024A42F82030FC
:101DC000704700BF00E100E000280CDB00F01F02BC
:101DD0004009012393402030034A42F82030BFF3EA
:101DE0004F8FBFF36F8F704700E100E0002808DBE2
:101DF0000901C9B200F1604000F5614080F80013AC
:101E0000704700F00F000901C9B2014B1954704727
:101E100014ED00E000B500F00700C0F1070CBCF1C4
:101E2000040F28BF4FF0040C031D062B0FD9C31E4F
:101E30004FF0FF3E0EFA0CF021EA000199400EFA35
:101E400003FE22EA0E0241EA02005DF804FB0023D1
:101E5000EEE70000074AD36823F4E0631B041B0C81
:101E6000000200F4E060034343F0BF6343F4003337
:101E7000D360704700ED00E010B50446054BD8680C
:101E8000C0F30220FFF7C6FF01462046FFF7AEFF72
:101E900010BD00BF00ED00E008B5FFF787FF08BDEB
:101EA00008B5FFF791FF08BD0138B0F1807F0BD274
:101EB0004FF0E0235861054AF02182F823100020FA
:101EC000986107221A6170470120704700ED00E019
:101ED000002808DB00F01F02400901239340603016
:101EE000014A42F82030704700E100E0704708B531
:101EF000FFF7FCFF08BD704758B110B504464379A1
:101F00001BB101236371002010BD0371FFF7F3FFC4
:101F1000F7E701207047034690F82120D2B2022A49
:101F200006D004228263002280F82020012070471E
:101F300001680A6822F00E020A6001680A6822F04D
:101F400001020A60026CC06B012101FA02F24260D8
:101F500083F82110002083F82000704708B590F81E
:101F60002130DBB2022B03D004238363012008BDA0
:101F70000268136823F00E0313600268136823F0ED
:101F8000010313600368194A934214D01432934238
:101F90001FD0143293421ED0143293421ED01432FA
:101FA00093421ED01432934202D04FF0807203E06D
:101FB0004FF4801200E001220D4B5A60012380F89B
:101FC0002130002380F82030436B6BB1984700200C
:101FD000CDE71022F0E74FF48072EDE74FF4805226
:101FE000EAE74FF48032E7E70020C0E7080002404C
:101FF00000000240044B0022DA61044A136943F0F6
:102000000103136101807047500500200020024049
:10201000194BDB6813F0100305D0184AD36943F05D
:102020000203D3611023144AD26812F0040F06D0C1
:102030001249CA6942F00102CA6143F004030E4A20
:10204000D26912F0010F09D00C49CA6942F00402AA
:10205000CA610949CA6922F00102CA6140F201124B
:10206000934202D0044AD3607047034AD36923F0F5
:102070000103D361704700BF0020024050050020DB
:102080000A4B1B6913F0800F0BD0084B084A5A60AB
:1020900002F188325A601B6913F0800F03D10020CF
:1020A0007047002070470120704700BF00200240A9
:1020B00023016745034A136943F08003136100203D
:1020C000704700BF0020024038B50446FFF78CFA85
:1020D0000546164BDB6813F0010F0AD0B4F1FF3F41
:1020E000F7D024B1FFF780FA401BA042F1D90320BA
:1020F0001BE00E4BDB6813F0200F02D00B4B2022AD
:10210000DA600A4BDB6813F0100F0BD1074BDB6969
:1021100013F0010F06D1054BDB6813F0040F01D15A
:10212000002002E0FFF774FF012038BD00200240CC
:102130002DE9F8431E46244B1B7E012B41D004465B
:102140000F469046204B01221A764CF25030FFF792
:10215000BBFF034678BB012C08D0022C03D04FF004
:1021600004091C4607E04FF00209FAE74FF00109A5
:10217000F7E70134E4B24C451DD22101C1F1200240
:10218000A1F1200328FA01F106FA02F2114326FA1E
:1021900003F3194389B207EB4400FFF72BFF4CF21E
:1021A0005030FFF791FF094B1D6925F001051D61B6
:1021B00003460028DDD0044A002111761846BDE808
:1021C000F8830223FAE700BF5005002000200240F8
:1021D000064B0022DA61064B1A6942F004021A61CA
:1021E0001A6942F040021A61704700BF5005002092
:1021F00000200240064B0022DA61064B1A6942F0C9
:1022000002021A6158611A6942F040021A6170476D
:102210005005002000200240264B1B7E012B46D09B
:1022200070B505460E46234B01221A760368022B31
:1022300020D04CF25030FFF747FF90BB4FF0FF33F8
:102240003360AC680121EA68AB6803EB8223A342E8
:1022500028D92046FFF7CEFF4CF25030FFF734FF6D
:10226000154A136923F0020313610146B8B904F556
:102270008064E8E74CF25030FFF726FF08B10121F7
:1022800010E00120FFF7A4FF4CF25030FFF71CFFD5
:102290000146094A136923F00403136102E0346024
:1022A00000E00121034B00221A76084670BD02218E
:1022B00008467047500500200020024008B5054B35
:1022C0005B69034200D108BD024B586102F052FA2B
:1022D000F9E700BF0004014082B0084B1B68084AC0
:1022E000A2FB03235B0A00FB03F3019300BF019BE6
:1022F0005A1E0192002BF9D102B070472400002031
:10230000D34D6210002800F0F18170B582B0044610
:10231000036813F0010F2CD0994B5B6803F00C039A
:10232000042B1DD0964B5B6803F00C03082B12D0D6
:102330006368B3F5803F41D0002B55D103F1804352
:1023400003F504331A6822F480321A601A6822F402
:1023500080221A6037E08A4B5B6813F4803FE7D035
:10236000874B1B6813F4003F03D06368002B00F019
:10237000BF81236813F0020F75D0814B5B6813F0A7
:102380000C0F5FD07E4B5B6803F00C03082B54D01E
:102390002369002B00F08A807A4B01221A60FFF734
:1023A00023F90546764B1B6813F0020F75D1FFF732
:1023B0001BF9401B0228F5D903209EE1704A1368DF
:1023C00043F480331360636843B3FFF70DF90546A8
:1023D0006B4B1B6813F4003FCBD1FFF705F9401B93
:1023E0006428F5D9032088E1B3F5A02F09D0644B08
:1023F0001A6822F480321A601A6822F480221A6065
:10240000E1E703F18043A3F53C331A6842F48022EC
:102410001A601A6842F480321A60D4E7FFF7E4F8D1
:102420000546574B1B6813F4003FA2D0FFF7DCF8BA
:10243000401B6428F5D903205FE1514B5B6813F41E
:10244000803FA5D14E4B1B6813F0020F03D02369C8
:10245000012B40F04F814A4A136823F0F803616969
:1024600043EAC1031360236813F0080F33D0A36954
:10247000002B5CD0434B0122C3F88024FFF7B4F853
:1024800005463F4B5B6A13F0020F21D1FFF7ACF812
:10249000401B0228F5D903202FE1394A136823F0A5
:1024A000F803616943EAC1031360DCE7354B00229E
:1024B0001A60FFF799F80546314B1B6813F0020FBD
:1024C000D1D0FFF791F8401B0228F5D9032014E181
:1024D0000120FFF701FF236813F0040F00F096803E
:1024E000274BDB6913F0805F34D1254BDA6942F06A
:1024F0008052DA61DB6903F080530193019B01256F
:10250000214B1B6813F4807F26D0E368012B3DD05C
:10251000002B53D103F1804303F504331A6A22F0F0
:1025200001021A621A6A22F004021A6233E0154BA1
:102530000022C3F88024FFF757F80546104B5B6A6A
:1025400013F0020FC7D0FFF74FF8401B0228F5D950
:102550000320D2E00025D3E70B4A136843F48073CD
:102560001360FFF741F80646074B1B6813F4807FA2
:10257000CBD1FFF739F8801B6428F5D90320BCE0E4
:102580000010024000004242007000405F4A136A9F
:1025900043F001031362E36833B3FFF725F80646FF
:1025A0005A4B1B6A13F0020F2FD1FFF71DF8801B47
:1025B00041F288339842F3D903209EE0052B09D0DD
:1025C000524B1A6A22F001021A621A6A22F00402BD
:1025D0001A62E0E74D4B1A6A42F004021A621A6A64
:1025E00042F001021A62D6E7FEF7FEFF0646474BAD
:1025F0001B6A13F0020F08D0FEF7F6FF801B41F2B2
:1026000088339842F3D9032077E0E5B9E369002BDA
:1026100072D03E4A526802F00C02082A56D0022BB1
:1026200017D03B4B00221A66FEF7DEFF0446374BFD
:102630001B6813F0007F47D0FEF7D6FF001B02286F
:10264000F5D9032059E0314AD36923F08053D3618F
:10265000DCE72F4B00221A66FEF7C6FF05462B4B20
:102660001B6813F0007F06D0FEF7BEFF401B022858
:10267000F5D9032041E0236AB3F5803F1AD02349FE
:102680004B6823F47413226A606A024313434B605D
:102690001F4B01221A66FEF7A7FF04461B4B1B685F
:1026A00013F0007F0ED1FEF79FFF001B0228F5D923
:1026B000032022E0154A536823F40033A1680B433A
:1026C0005360DCE7002018E0002016E0012B16D054
:1026D0000E4B5B6803F48031226A914211D103F4FE
:1026E0007013626A93420ED1002006E00120704709
:1026F000012002E0012000E0002002B070BD0120B6
:10270000FBE70120F9E70120F7E700BF00100240D6
:10271000000042420F4B5B6803F00C02082A01D014
:102720000D487047C3F383420C49885C13F4803F23
:102730000BD0084B5B68C3F34043094AD35C064A9D
:1027400002FB00F0B0FBF3F07047064B03FB00F018
:10275000704700BF0010024000127A00187800088D
:102760001478000800093D00002800F0A08070B532
:102770000D460446524B1B6803F007038B420BD2F5
:102780004F4A136823F007030B431360136803F0E9
:1027900007038B4240F08D80236813F0020F17D09F
:1027A00013F0040F04D0474A536843F4E0635360C6
:1027B000236813F0080F04D0424A536843F460536F
:1027C0005360404A536823F0F003A1680B43536001
:1027D000236813F0010F31D06368012B20D0022B46
:1027E00025D0384A126812F0020F64D035494A6881
:1027F00022F0030213434B60FEF7F6FE0646314B10
:102800005B6803F00C036268B3EB820F16D0FEF72F
:10281000EBFE801B41F288339842F0D9032045E05B
:10282000284A126812F4003FE0D101203EE0254A18
:10283000126812F0007FD9D1012037E0204B1B68CD
:1028400003F00703AB420AD91D4A136823F00703BC
:102850002B431360136803F00703AB422DD12368A9
:1028600013F0040F06D0174A536823F4E063E168BD
:102870000B435360236813F0080F07D0114A5368C5
:1028800023F46053216943EAC1035360FFF742FF19
:102890000C4B5B68C3F303130B4AD35CD8400B4B60
:1028A00018600B4B1868FEF75BFE002070BD01201E
:1028B00070470120FAE70120F8E70120F6E700BFA2
:1028C000002002400010024084780008240000200C
:1028D00004000020014B1868704700BF240000204E
:1028E00008B5FFF7F7FF044B5B68C3F30223034A05
:1028F000D35CD84008BD00BF001002407C780008BF
:1029000008B5FFF7E7FF044B5B68C3F3C223034A34
:10291000D35CD84008BD00BF001002407C7800089E
:102920000F2303600B4B5A6802F0030242605A689F
:1029300002F0F00282605A6802F4E062C2605B68F2
:10294000DB0803F4E0630361034B1B6803F0070338
:102950000B607047001002400020024070B582B04A
:102960000446036813F0010F36D03F4BDB6913F0C8
:10297000805F49D13C4BDA6942F08052DA61DB6911
:1029800003F080530193019B0125384B1B6813F41E
:10299000807F3BD0344B1B6A13F4407313D06268C2
:1029A00002F440729A420ED02F4A136A23F4407008
:1029B0002F490126C1F840640026C1F84064106226
:1029C00013F0010F36D1284A136A23F4407361686B
:1029D0000B431362002D3ED1236813F0020F06D083
:1029E000214A536823F44043A1680B435360236892
:1029F00013F0100F34D01C4A536823F48003E168AD
:102A00000B43536000202CE00025BEE7174A1368F3
:102A100043F480731360FEF7E7FD0646134B1B6813
:102A200013F4807FB6D1FEF7DFFD801B6428F5D953
:102A3000032016E0FEF7D8FD06460B4B1B6A13F089
:102A4000020FC0D1FEF7D0FD801B41F288339842BF
:102A5000F3D9032005E0D36923F08053D361BBE7AA
:102A6000002002B070BD00BF0010024000700040A6
:102A70000000424208B502284ED0102803D0012899
:102A800028D0002052E02B4B5A68186810F0807054
:102A90004CD0C2F383432849C85C12F4803F15D060
:102AA000244B5B68C3F34043244AD25C244BB3FB02
:102AB000F2F303FB00F01F4B5B6813F4800F35D17A
:102AC0004000204BA3FB003040082FE01E4B03FBCF
:102AD00000F0F0E7174B1B6A40F202321A40B2F5E1
:102AE000817F24D003F44073B3F5007F04D0B3F5A5
:102AF000407F09D0002019E00E4A526A12F0020FFE
:102B0000F5D049F6404011E00A4B186810F4003047
:102B10000CD04FF2244009E0FFF7F2FE054B5B6852
:102B2000C3F3813301335B00B0FBF3F008BD4FF416
:102B30000040FBE7001002402C78000828780008CD
:102B400000127A00ABAAAAAA00093D0090F83D3015
:102B5000DBB2012B1ED1022380F83D3003680F4AFF
:102B600093420CD0B3F1804F09D0A2F59432934236
:102B700005D01A6842F001021A60002070479A6876
:102B800002F00702062A07D01A6842F001021A6012
:102B9000002070470120704700207047002C014042
:102BA0000368196A41F21112114208D1196A40F200
:102BB0004442114203D11A6822F001021A60012333
:102BC00080F83D300020704790F83C30012B0ED04B
:102BD000012380F83C30022280F83D2002685161D8
:102BE00080F83D30002380F83C30184670470220C2
:102BF00070477047704710B5044603681A6912F0B1
:102C0000020F11D0DA6812F0020F0DD06FF002023D
:102C10001A610123037703689B6913F0030F70D0D7
:102C200001F070FA0023237723681A6912F0040F69
:102C300012D0DA6812F0040F0ED06FF004021A619D
:102C40000223237723689B6913F4407F5FD02046DB
:102C500001F058FA0023237723681A6912F0080F4D
:102C600012D0DA6812F0080F0ED06FF008021A6165
:102C7000042323772368DB6913F0030F4ED020462B
:102C800001F040FA0023237723681A6912F0100F2D
:102C900012D0DA6812F0100F0ED06FF010021A6125
:102CA000082323772368DB6913F4407F3DD0204657
:102CB00001F028FA0023237723681A6912F0010F24
:102CC00003D0DA6812F0010F36D123681A6912F0C6
:102CD000800F03D0DA6812F0800F34D123681A69AC
:102CE00012F0400F03D0DA6812F0400F32D123689F
:102CF0001A6912F0200F03D0DA6812F0200F30D1D9
:102D000010BD01F003FA2046FFF773FF8AE7204663
:102D100001F0FCF92046FFF76CFF9BE7204601F02D
:102D2000F5F92046FFF765FFACE7204601F0EEF924
:102D30002046FFF75EFFBDE76FF001021A612046F3
:102D400001F0B4F9C1E76FF080021A61204600F08B
:102D5000AAFAC3E76FF040021A612046FFF74AFF64
:102D6000C5E76FF020021A61204600F09BFAC7E722
:102D70000368174A904206D0B0F1804F03D0A2F505
:102D80009432904203D123F070034A681343104AEF
:102D9000904206D0B0F1804F03D0A2F59432904219
:102DA00003D123F44073CA68134323F080034A69B4
:102DB000134303608B68C3620B688362044B9842C1
:102DC00002D00123436170470B690363F9E700BF39
:102DD000002C014040B310B5044690F83D30F3B1EB
:102DE000022384F83D30214651F8040BFFF7C0FF61
:102DF000012384F8463084F83E3084F83F3084F86C
:102E0000403084F8413084F8423084F8433084F80C
:102E1000443084F8453084F83D30002010BD80F8FF
:102E20003C3002F043F8DBE70120704701F01F015E
:102E30004FF0010C0CFA01FC036A23EA0C03036255
:102E4000036A8A40134303627047000010B50446CA
:102E5000084631BB94F83E30DBB2013B18BF01237A
:102E6000002B57D1002835D1022384F83E300122AF
:102E700001462068FFF7DAFF2368284A934239D0D9
:102E80002368264A93423AD0B3F1804F37D0A2F557
:102E90009432934233D01A6842F001021A60002043
:102EA00039E0042908D008290DD094F84130DBB26C
:102EB000013B18BF0123D3E794F83F30DBB2013B5D
:102EC00018BF0123CCE794F84030DBB2013B18BFB8
:102ED0000123C5E7042805D0082807D0022384F879
:102EE0004130C4E7022384F83F30C0E7022384F86E
:102EF0004030BCE75A6C42F400425A64C0E79A681A
:102F000002F00702062A07D01A6842F001021A608E
:102F1000002000E0012010BD0020FCE7002C014053
:102F200010B50446084631BB94F83E30DBB2013B95
:102F300018BF0123002B57D1002835D1022384F874
:102F40003E30012201462068FFF770FF2368284ABF
:102F5000934239D02368264A93423AD0B3F1804F46
:102F600037D0A2F59432934233D01A6842F001026E
:102F70001A60002039E0042908D008290DD094F8FF
:102F80004130DBB2013B18BF0123D3E794F83F3057
:102F9000DBB2013B18BF0123CCE794F84030DBB231
:102FA000013B18BF0123C5E7042805D0082807D036
:102FB000022384F84130C4E7022384F83F30C0E79D
:102FC000022384F84030BCE75A6C42F400425A6451
:102FD000C0E79A6802F00702062A07D01A6842F092
:102FE00001021A60002000E0012010BD0020FCE773
:102FF000002C014010B504460B4639BB90F83E004A
:10300000C0B29BBB94F84220D2B2012868D1012AF9
:1030100067D1002B3AD1022284F83E2084F8422066
:10302000012219462068FFF701FF23682E4A9342C8
:103030004BD0B3F1804F48D0A2F59432934244D0A4
:103040001A6842F001021A6000204AE0042905D003
:10305000082907D090F84100C0B2D2E790F83F00AD
:10306000C0B2CEE790F84000C0B2CAE7042B05D04A
:10307000082B07D094F84520D2B2C6E794F8432035
:10308000D2B2C2E794F84420D2B2BEE7042B0CD0EF
:10309000082B0ED0022284F84120042B0DD0082BDF
:1030A0000FD0022284F84520BAE7022284F83F209C
:1030B000F3E7022284F84020EFE7022284F843205D
:1030C000AEE7022284F84420AAE79A6802F00702D9
:1030D000062A07D01A6842F001021A60002000E0B8
:1030E000012010BD0020FCE7002C014001F01F0171
:1030F0004FF0040C0CFA01FC036A23EA0C03036290
:10310000036A8A40134303627047000010B5044607
:10311000084639BB94F84230DBB2013B18BF0123AB
:10312000002B53D1002836D1022384F842300422E8
:1031300001462068FFF7DAFF2268536C43F400432E
:1031400053642368234A934235D0B3F1804F32D081
:10315000A2F5943293422ED01A6842F001021A600E
:10316000002034E0042908D008290DD094F8453017
:10317000DBB2013B18BF0123D2E794F84330DBB246
:10318000013B18BF0123CBE794F84430DBB2013B8D
:1031900018BF0123C4E7042805D0082807D002235C
:1031A00084F84530C3E7022384F84330BFE70223A5
:1031B00084F84430BBE79A6802F00702062A07D079
:1031C0001A6842F001021A60002000E0012010BDE0
:1031D0000020FCE7002C014010B50446084639BB2E
:1031E00094F84230DBB2013B18BF0123002B53D1CE
:1031F000002836D1022384F8423004220146206898
:10320000FFF774FF2268536C43F400435364236850
:10321000234A934235D0B3F1804F32D0A2F5943295
:1032200093422ED01A6842F001021A60002034E066
:10323000042908D008290DD094F84530DBB2013BB1
:1032400018BF0123D2E794F84330DBB2013B18BF2B
:103250000123CBE794F84430DBB2013B18BF0123D4
:10326000C4E7042805D0082807D0022384F8453095
:10327000C3E7022384F84330BFE7022384F84430D5
:10328000BBE79A6802F00702062A07D01A6842F0E4
:1032900001021A60002000E0012010BD0020FCE7C0
:1032A000002C014070477047026802F10C0353E89C
:1032B000003F23F490730C3242E800310029F3D12F
:1032C000026802F1140353E8003F23F001031432B3
:1032D00042E800310029F3D1036B012B05D02023F4
:1032E00080F84230002303637047026802F10C0348
:1032F00053E8003F23F010030C3242E8003100296C
:10330000F3D1ECE790F84130DBB2212B01D0022061
:1033100070478368B3F5805F17D0036A5A1C026256
:103320001A7803685A60C38C9BB2013B9BB2C3847A
:103330004BB90268D36823F08003D3600268D36876
:1033400043F04003D360002070470369002BE4D1B1
:10335000036A1B880268C3F308035360036A0233DD
:103360000362E0E710B504460268136923F4405392
:10337000C1680B43136183680269134342691A43AE
:103380000168CB6823F4B05323F00C031343CB60E4
:103390000268536923F4407381690B4353610268E7
:1033A000134B9A4220D0FFF79BFA024602EB8202AF
:1033B00002EB820263689B00B2FBF3F20D48A0FBB4
:1033C00002314909642303FB11231B013233A0FBA3
:1033D00003035B0903F0F00202EB011203F00F0399
:1033E000216813448B6010BDFFF78AFA0246DDE7BF
:1033F000003801401F85EB512DE9F84305460F4683
:1034000016469946DDF820802B681C6837EA0404CC
:103410000CBF01240024B4422DD1B8F1FF3FF3D0FA
:10342000B8F1000F05D0FEF7DFF8A0EB090040452A
:10343000EAD92A6802F10C0353E8003F23F4D07361
:103440000C3242E800310029F3D12A6802F114035A
:1034500053E8003F23F00103143242E80031002911
:10346000F3D1202385F8413085F84230002385F8D8
:103470004030032000E00020BDE8F883704760B3CF
:1034800010B5044690F8413013B3242384F841303A
:103490002268D36823F40053D3602046FFF762FF0D
:1034A0002268136923F4904313612268536923F05F
:1034B0002A0353612268D36843F40053D360002089
:1034C0006064202384F8413084F84230606310BD8A
:1034D00080F84030FFF7D2FFD7E70120704700287F
:1034E00031D010B5044690F841303BB3242384F822
:1034F00041302268D36823F40053D3602046FFF79D
:1035000031FF2268136923F49043136122685369E1
:1035100023F0220353612268536943F00803536187
:103520002268D36843F40053D360002060642023F2
:1035300084F8413084F84230606310BD80F8403038
:10354000FFF79CFFD2E7012070472DE9F04182B0E0
:103550001E4690F84130DBB2202B4BD104460D467D
:10356000904600294AD00AB9012044E00023436470
:10357000212380F84130FEF737F80746A4F824806D
:10358000A4F82680A368B3F5805F02D04FF000084E
:103590000FE02369FBB14FF000080AE038F8023B66
:1035A0002268C3F308035360E28C92B2013A92B2EC
:1035B000E284E38C9BB28BB100963B4600228021D3
:1035C0002046FFF719FFD8B9002DE7D015F8012BD9
:1035D00023685A60E8E7A8460025EAE700963B46DC
:1035E000002240212046FFF707FF58B9202384F826
:1035F000413000E0022002B0BDE8F0810120FAE78E
:103600000320F8E70320F6E790F84130DBB2202BE7
:1036100010D189B192B101628284C28400234364D3
:10362000212280F841200168CA6842F08002CA6005
:1036300018467047022070470120704701207047EC
:1036400008B50168CA6822F04002CA60202280F8EA
:10365000412001F0B2FE002008BD08B5406A0023F9
:10366000C385C38401F0B0FE08BD704790F84230B6
:10367000DBB2222B69D18368B3F5805F4FD0826AB9
:10368000B3F5805F04D0002B56D10369002B53D1D2
:1036900003685B681370836A01338362C38D9BB2D6
:1036A000013B9BB2C385002B51D100B583B00268AA
:1036B000D36823F02003D3600268D36823F48073B7
:1036C000D3600268536923F001035361202380F81B
:1036D000423000234363036B012B33D10023036388
:1036E000026802F10C0353E8003F23F010030C3290
:1036F00042E800310029F3D103681A6812F0100F74
:1037000006D0002201921A6801925B680193019B26
:10371000818DFFF7AAFF002003B05DF804FB02696A
:10372000002AACD1826A03685B68C3F30803138084
:10373000836A02338362B1E703685B6803F07F0347
:103740001370A8E701F032FEE5E702207047002081
:103750007047000010B582B0044602681368D06854
:10376000516913F00F0F09D113F0200F0CD010F096
:10377000200F09D02046FFF779FF16E011F0010174
:1037800015D110F4907F12D1216B012979D013F05B
:10379000800F03D010F0800F40F0138113F0400F22
:1037A00003D010F0400F40F0108102B010BD13F0B4
:1037B000010F06D010F4807F03D0626C42F001024A
:1037C000626413F0040F04D019B1626C42F002027B
:1037D000626413F0020F04D019B1626C42F004026B
:1037E000626413F0080F07D010F0200F00D119B158
:1037F000626C42F008026264626C002AD5D013F059
:10380000200F02D010F0200F29D123685B6903F04C
:103810004003626C12F0080F00D163B32046FFF73B
:1038200043FD23685B6913F0400F20D0226802F14A
:10383000140353E8003F23F04003143242E8003100
:103840000029F3D1E36B73B1624A5A63E06BFEF770
:1038500085FB0028A9D0E06B436B9847A5E720467D
:10386000FFF704FFD1E7204601F0AEFD9DE72046BB
:1038700001F0AAFD99E7204601F0A6FD002363644C
:1038800093E713F0100F82D010F0100F3FF47FAFCA
:10389000002301931368019353680193019B5369BB
:1038A00013F0400F51D0E26B13685B689BB2002BA2
:1038B0003FF47BAFA18D99427FF677AFE3859369A3
:1038C000202B37D0226802F10C0353E8003F23F489
:1038D00080730C3242E800310029F3D1226802F1F2
:1038E000140353E8003F23F00103143242E800318F
:1038F0000029F3D1226802F1140353E8003F23F0BA
:103900004003143242E800310029F3D1202384F827
:10391000423000232363226802F10C0353E8003F86
:1039200023F010030C3242E800310029F3D1E06BA0
:10393000FEF7F1FA02236363A18DE38D9BB2C91AEE
:1039400089B22046FFF791FE2FE7A18DE38D9BB250
:10395000C91A89B2E38D9BB2002B3FF426AF002930
:103960003FF423AF226802F10C0353E8003F23F435
:1039700090730C3242E800300028F3D1226802F143
:10398000140353E8003F23F00103143242E80030EF
:103990000028F3D1202384F84230002323632268D7
:1039A00002F10C0353E8003F23F010030C3242E80D
:1039B00000300028F3D1022363632046FFF755FE51
:1039C000F3E62046FFF79EFCEFE62046FFF738FEC1
:1039D000EBE600BF5B36000890F84030012B14D0B6
:1039E000012380F84030242380F841300268D368F6
:1039F00023F00C0343F00803D360202380F8413008
:103A0000002380F84030184670470220704790F835
:103A10004030012B14D0012380F84030242380F85B
:103A200041300268D36823F00C0343F00403D360F1
:103A3000202380F84130002380F84030184670473A
:103A40000220704790F8413090F8420018437047C8
:103A500081628285C28500234364222380F842303C
:103A6000036923B10268D36843F48073D3600268AA
:103A7000536943F0010353610268D36843F02003A4
:103A8000D3600020704708B590F84230DBB2202B9D
:103A900008D149B10AB9012008BD00230363FFF72B
:103AA000D7FFF9E70220F7E70120F5E710B5044654
:103AB0000269D36823F00103D3600269D36823F05D
:103AC0000203D3600269D36823F00403D360026960
:103AD000D36823F00803D36050F8102FD36823F085
:103AE0001003D360FFF75CF82269136823F0010329
:103AF0001360012384F84E3084F84F3084F850303E
:103B000084F8513084F8523084F8533084F85430BB
:103B100084F8553010BD000008B50139032909D8D3
:103B2000DFE801F002100406002008BD0820FCE7D1
:103B30000C20FAE740F20311034801F0E3F84FF0DC
:103B4000FF30F2E70420F0E78075000810B54B1E47
:103B5000C35C13F0100F07D0022910D0032910D036
:103B6000012921D1042400E0002413F0010F0DD01D
:103B70000139032920D8DFE801F0070E1114402491
:103B8000F3E74FF48064F0E744F00104B4F1FF3F41
:103B90000CD0204610BD44F01004F7E744F48074C4
:103BA000F4E744F48054F1E74FF0FF344FF49E7192
:103BB000034801F0A7F8ECE74FF0FF34F6E700BF49
:103BC0008075000808B50139032909D8DFE801F03C
:103BD00002100406022008BD0820FCE71020FAE7C6
:103BE0004FF4AC71034801F08DF84FF0FF30F2E76D
:103BF0000420F0E7807500080139032903D8DFE8C5
:103C000001F00B0507094FF0FF30704701207047A6
:103C10000420704703207047022070472DE9F041CF
:103C200004460D46FFF778FF074629462046FFF772
:103C3000C9FFAE1D04EB0616B36833B12369C24356
:103C40001A612269D3680343D36005F1FF3804EB9E
:103C500048039B880C2B5DD8DFE803F05E5E1D1DDA
:103C60001D07071D1D575757330014F8083013F070
:103C7000100F0AD114F8083013F0010F4AD039465A
:103C800004F11000FFF74CF944E0394604F110004C
:103C9000FFF7A2FAEEE714F8083013F0100F0AD17C
:103CA00014F8083013F0010F34D0394604F1100035
:103CB000FFF7CCF82EE0394604F11000FFF726FAA2
:103CC000EEE7394604F11000FFF794F92946204643
:103CD000FFF792FF0546276901462046FFF736FFAA
:103CE0003B6A18433862B368A3B129462046FFF700
:103CF00069FF2369C043186129462046FFF762FF28
:103D00002369DA681043D86004E0394604F11000F2
:103D1000FFF770F9BDE8F08123691B6813F0010F0C
:103D2000F8D104F11000FEF711FFF3E710B50446D7
:103D3000836E5BB103696FF001021A6150F8102FB6
:103D4000D36843F00103D360FEF700FF0121204652
:103D5000FFF764FF02212046FFF760FF03212046A2
:103D6000FFF75CFF04212046FFF758FF10BD08B5A0
:103D700001211030FEF728FF08BD0369186810F014
:103D8000010000D00120704738B505460C46FFF70A
:103D9000F4FF88B9E36813F0010F0ED0E36823F055
:103DA0000103E3602846FFF7E2FF6FF001032361A0
:103DB000E36843F00103E36038BD2846FFF7D7FF0F
:103DC000FAE7000010B50E4B98420DD0B0F1804FCD
:103DD0000CD04FF6FF740B4B98420FD04FF6FF7389
:103DE0009C4205D0204610BD0024F4E70124F5E7ED
:103DF0004FF4A761044800F085FFF3E70224F1E7E0
:103E0000002C0140000400408075000870B5054694
:103E1000064656F8100FFFF7D5FF0446304600F06F
:103E2000DBFF0023084A42F82430EB6015F16006FE
:103E300008D005F1B00403E0103C2046FDF7FCF883
:103E4000A642F9D1284670BD7005002010B586B095
:103E50000446002301930293039304930593009374
:103E6000694601A8FEF75CFD206901F04BF80128C6
:103E700009D0022816D040F25C510E4800F042FFF3
:103E8000002006B010BD049CFEF72AFDB4F5C06FFB
:103E900006D00BD8B4F5806F02D0B4F5A06FF0D186
:103EA0004000EEE7059CFEF72BFDEFE7B4F5E06F71
:103EB000E7D1F5E78075000838B505460C46012ABC
:103EC0000CD0022A18D1FFF7C1FFB0FBF4F0030CAD
:103ED0005C1C2A699362B0FBF4F40DE0FFF7B6FFB7
:103EE0000A4BA3FB00239B0C04FB03F31A0C541C8A
:103EF00029698A62B3FBF4F404B1013C2B69DC62EA
:103F0000EC6129692846FFF73FFF38BD83DE1B437C
:103F100008B5034B186810B10430FEF76CFE08BDFD
:103F20007005002008B5034B186810B10430FEF787
:103F300062FE08BD7005002008B5034B586810B13B
:103F40000430FEF758FE08BD7005002008B5034B8D
:103F5000986810B10430FEF74EFE08BD70050020D1
:103F600010B5044683682BB103220146984700230D
:103F7000A360E360204610BD70B504460D460846B8
:103F8000FFF720FF064623691BB15D21204800F0A2
:103F9000B9FE04F10C031F4A42F8263025610025C2
:103FA00084F82C5025636563A563E5632564656427
:103FB000A56484F84C5084F84D50E4600E23A3654A
:103FC000E56504F11006304600F0CEFE06E0A81DBF
:103FD000002104EB0010FFF7C3FF0135042DF6DDCF
:103FE000002305E00022E25404EB43018A80013300
:103FF000032BF7DD002363614FF6FF72E261A361DB
:10400000236263628023A3623046FEF7E3FE70BD45
:10401000807500087005002010B5044600F16003AB
:104020004FF0040C07E000221A605A609A60DA60D0
:104030000CF1FF3C1033BCF1000FF4DA00232361D4
:104040002046FFF799FF204610BD38B504460023EF
:10405000036043608360C3608B6833B10D46022206
:104060009847EB68E360AB68A360204638BD08B5AD
:10407000836813B1C368984708BD03F0ADF9000029
:1040800010B5044648B1204600F06CFE0068836E0F
:1040900013B16030FFF7EBFF10BD4FF48A610248A7
:1040A00000F030FEEFE700BF8075000808B5FFF7AD
:1040B000E7FF08BD38B5054648B12B7F013B072B0C
:1040C00019D8DFE803F00A1B180C1818181940F269
:1040D00063410B4800F016FEEFE7012400E00324E3
:1040E000284600F03FFE0068A31D00EB0310836824
:1040F0000BB1FFF7BCFF38BD0424F1E70224EFE762
:104100008075000808B5FFF7D5FF08BD08B5FFF7B3
:10411000D1FF08BD82B002460B46EC4603C88CE8CE
:10412000030093E8030082E803009CE8030083E8AF
:10413000030002B0704738B505460C46FFF7EAFFAA
:10414000AB68A268AA60A360EB68E268EA60E3601B
:1041500038BD10B584B004466846FFF776FF2146A7
:104160006846FFF7E8FF6846FCF766FF204604B0A4
:1041700010BD38B504460D46836E1BB16030FFF7A5
:10418000E8FF38BD6030FFF7E4FFAB68002BF8D0E4
:1041900023696FF001021A612269D36843F00103B9
:1041A000D360EEE708B502F083F908BD08B502F068
:1041B00087F908BD84B0032834D8DFE800F0020F87
:1041C0001B27194B9A6942F004029A619B6903F01C
:1041D00004030093009B154804B07047124B9A6982
:1041E00042F008029A619B6903F008030193019B66
:1041F0000F48F1E70C4B9A6942F010029A619B69F3
:1042000003F010030293029B0A48E5E7064B9A6904
:1042100042F020029A619B6903F020030393039B01
:104220000548D9E70020D7E7001002400008014008
:10423000000C0140001001400014014008B50C4979
:1042400000F050FDC0F3C43011280AD8DFE800F0B8
:104250000E0E0E0E0E0E0E0E0E0E0E0E0E0E0E0E7E
:104260000E0E0146034800F04DFD002008BD00BFC2
:10427000107B0008B075000808B541F201039842B0
:1042800009D041F20203984207D00146044800F0E9
:1042900039FD002008BD1020FCE71120FAE700BF1F
:1042A000CC75000800B583B00268154B9A420BD05C
:1042B0000268144B9A4213D0134B186810F4805FB5
:1042C0001AD003B05DF804FB03F56C439A6942F41D
:1042D00000729A619B6903F400730093009BE7E707
:1042E00003F568439A6942F480629A619B6903F41A
:1042F00080630193019BDFE7044900F0A5FCE0E740
:10430000002401400028014018000020107B000814
:104310000268154B9A4204D00268144B9A420FD09F
:10432000704703F56C43DA6842F40072DA60DA68C9
:1043300022F40072DA609A6922F400729A61EBE763
:1043400003F56843DA6842F48062DA60DA6822F4DE
:104350008062DA609A6922F480629A619A6922F432
:1043600080629A61DCE700BF002401400028014020
:1043700070B592B004463022002106A802F0CAFDB2
:104380000023039304930593ADF80A30019314F4CA
:10439000805F03D041F202039C422AD93B49204668
:1043A00000F078FC069001A92046FFF747FF05467C
:1043B0000226069B002B61D00023079308938DF8FB
:1043C000243001220A928DF82C300C934FF4602295
:1043D0000D9210930E938DF83C302D4B1C6006A867
:1043E000FDF754FB00284CD10395112D09D900206D
:1043F00045E0284B06932046FFF73EFF054607267B
:10440000D7E701230493059603A906A8FDF7B8F999
:1044100008B1002033E006A8FDF748FC08B10020F1
:104420002DE006A8FDF792FA08B1002027E00A2146
:1044300006A8FDF7DFF808B1002020E006A8FDF788
:104440003FFA10F4007F05D106A8FDF715FC40B136
:10445000002014E006A8FDF78FF983B2ADF80A300A
:10446000F2E706A8FDF796FB68B90A4A936823F4B9
:1044700000039360BDF80A0080B200E0002012B093
:1044800070BD0020FBE70020F9E700BF107B0008AB
:10449000180000200024014070B50546134900F0C3
:1044A000F9FBFFF78FFC0446114B53F8203063B142
:1044B0000F4B53F824301C6834B12046FFF7A6FC9C
:1044C000B0212046FFF772FE70BDB020FFF76AFEF4
:1044D00006460649284600F0DDFB01463046FFF758
:1044E0009BFD034B53F824301E60E1E73C79000844
:1044F0007005002008B5FDF777F808BD704708B5CE
:10450000FDF766F8FDF7F3FCFFF7F8FF08BD70470D
:1045100084B00F4BDA6942F08052DA61DA6902F056
:1045200080520192019A9A6942F001029A619A6955
:1045300002F001020292029A5A6942F040025A6164
:104540005B6903F040030393039B04B0704700BF13
:10455000001002400D4BD3F8FC3013F0807F06D1E1
:104560000A4AD2F8FC3043F08073C2F8FC30084BA2
:1045700000225A601A6842F001021A6000BF00BFB0
:1045800000BF5868B0FA80F04009704700ED00E0C5
:10459000001000E008B5FFF7BBFFFFF7DBFFFDF7FA
:1045A00005F8FFF7B4FF00F0A9FF0248FDF7A4FCEF
:1045B00008BD00BF1C0000200346002002E05B088D
:1045C0000130C0B2012BFAD170470000484A1146B1
:1045D000062301F8043B002353604B608B6013619A
:1045E000072111759361D36113625362082182F828
:1045F0002810D362136353639363092182F83C103C
:10460000136453649364D3640A2182F85010536591
:104610009365D3651366172182F864109366D36699
:104620001367536782F87810D367C2F88030C2F8F6
:104630008430C2F8883082F88C10C2F89030C2F80A
:104640009430C2F89830C2F89C3082F8A010C2F8BA
:10465000A430C2F8A830C2F8AC30C2F8B03082F84A
:10466000B410C2F8B830C2F8BC30C2F8C030C2F8DA
:10467000C430282182F8C810C2F8CC30C2F8D0303B
:10468000C2F8D430C2F8D83082F8DC10C2F8E0307A
:10469000C2F8E430C2F8E830C2F8EC3082F8F0102A
:1046A000C2F8F430C2F8F830C2F8FC30C2F8003179
:1046B00082F80411C2F80831C2F80C31C2F8103186
:1046C000C2F8143182F81811C2F81C31C2F8203136
:1046D000C2F82431C2F8283182F82C11C2F83031E6
:1046E000C2F83431C2F83831C2F83C31704700BFEB
:1046F0007C05002010B5054C03E0143C201DFCF7A0
:104700009BFC034B9C42F8D110BD00BFBC060020AF
:104710007C05002008B50120FDF7D0FD08BD08B5D7
:104720000220FDF7CBFD08BD08B50420FDF7C6FD4E
:1047300008BD08B50820FDF7C1FD08BD08B510206B
:10474000FDF7BCFD08BD10B5202403E0A0B2FDF7C5
:10475000B5FD6400B4F5007FF8D910BD10B54FF475
:10476000806403E0A0B2FDF7A9FD6400B4F5004F3A
:10477000F8D910BD08B5FFF71FFF00EB8003044810
:1047800000EB8300043083680BB1FFF770FC08BDB9
:104790007C05002008B5FFF719FF08BD08B5FFF735
:1047A000A9FF08BD82B0124B9A6942F001029A61DA
:1047B0009B6903F001030193019BA0F10D03012B01
:1047C0000ED90F2803D0132801D0142806D1094A86
:1047D000536823F0E06343F00073536002B0704706
:1047E000044A536823F0E06343F080635360E8E7D2
:1047F000001002400000014082B07D4B9A6942F0F7
:1048000001029A619B6903F001030193019B013846
:1048100023282CD8DFE810F024002D0035003D00BF
:1048200045004D0055005D002B002B002B0065005E
:104830006D0077007F00870091009B00A300AB0014
:10484000B5002B002B002B002B002B00BD00C5005A
:104850002B002B002B002B00CD00D300DB00E3004E
:10486000644A536843F0E06343F00103536002B0CD
:104870007047604A536823F0010343F0E0635360DC
:10488000F5E75C4A536843F0E06343F0020353608A
:10489000EDE7584A536823F0020343F0E0635360A6
:1048A000E5E7544A536843F0E06343F00403536080
:1048B000DDE7504A536823F0040343F0E06353609C
:1048C000D5E74C4A536843F0E06343F00803536074
:1048D000CDE7484A536823F0080343F0E063536090
:1048E000C5E7444A536843F0E06343F0C0035360B4
:1048F000BDE7404A536823F0C00343F0E06343F050
:1049000040035360B3E73B4A536823F0C00343F0CE
:10491000E0635360ABE7374A536843F0E06343F426
:1049200040735360A3E7334A536823F4407343F062
:10493000E06343F40073536099E72E4A536823F40D
:10494000407343F0E06343F4807353608FE7294A78
:10495000536823F4407343F0E063536087E7254ACC
:10496000536843F0E06343F4406353607FE7214AB8
:10497000536823F4406343F0E06343F400635360FF
:1049800075E71C4A536823F4406343F0E0635360C7
:104990006DE7184A536843F0E06343F40043536003
:1049A00065E7144A536823F4004343F0E06353601F
:1049B0005DE7104A536823F0E063536057E70D4A00
:1049C000536823F0E06343F0807353604FE7094A74
:1049D000536823F0E06343F00073536047E7054AF0
:1049E000536823F0E06343F0806353603FE700BF08
:1049F000001002400000014010B54FEA116C50F861
:104A00000C4091FAA1F39BB1B3FA83F39B004FF0F2
:104A10000F0E0EFA03F324EA030391FAA1F149B150
:104A2000B1FA81F189008A40134340F80C3010BD7F
:104A30002023EBE72021F5E70B0EC05891FAA1F3F4
:104A400073B1B3FA83F39B000F2202FA03F3184009
:104A500091FAA1F131B1B1FA81F18900C8407047F2
:104A60002023F0E72021F8E710B54FEA116C50F849
:104A70000C4091FAA1F39BB1B3FA83F39B004FF082
:104A8000030E0EFA03F324EA030391FAA1F149B1EC
:104A9000B1FA81F189008A40134340F80C3010BD0F
:104AA0002023EBE72021F5E710B54FEA116C50F811
:104AB0000C4091FAA1F39BB1B3FA83F39B004FF042
:104AC000040E0EFA03F324EA030391FAA1F149B1AB
:104AD000B1FA81F189008A40134340F80C3010BDCF
:104AE0002023EBE72021F5E770B505460E46144676
:104AF000FFF7A2FF012C09D0022C20D0082815D1E5
:104B0000042231462846FFF777FF0FE004280ED035
:104B1000EA68330A22EA162293FAA3F36BB1B3FAD6
:104B200083F3012101FA03F31343EB6070BD082204
:104B300031462846FFF760FFEAE72023F1E7042823
:104B400004D0EB6823EA1623EB60EFE70822314636
:104B50002846FFF751FFF4E7B0F1FF3F07D00B689D
:104B6000B3F1FF3F05D0834205D00C31F7E70020B9
:104B70007047002070470120704700002DE9F8437E
:104B800004460E4601F00705C1F30629C0F30317DA
:104B900000F00F022A4B53F82280B0F1FF3F0BD0F8
:104BA0003846FFF707FB0746012D0AD0032D2FD803
:104BB000DFE805F01F0C24349E21224800F0A2F803
:104BC000EEE703224146FFF74FFFEFE701224146A0
:104BD0003846FFF711FF013D012D21D9C6F301121F
:104BE00041463846FFF780FF2046FFF7DBFDBDE872
:104BF000F8834846FFF700FE0822E8E7B9F17F0F87
:104C000001D10922E3E74846FFF7F6FD0922DEE776
:104C1000FD210C4800F076F80022D8E70022D6E704
:104C200016F0080F05D0042241463846FFF73CFF36
:104C3000D4E7002241463846FFF736FFCEE700BFF3
:104C40003C780008F0750008B0F1FF3F08D008B5C7
:104C50000B68B3F1FF3F08D0834202D00C31F7E775
:104C600070478968FFF78AFF04E040F22B11024881
:104C700000F048F808BD00BFF075000800E00C31F6
:104C80000B68B3F1FF3F03D08342F8D14868704707
:104C900000207047B0F1FF3F03D008B5FFF7EEFFEB
:104CA00008BD0020704700E00C314B681BB1834207
:104CB000FAD1086870474FF0FF30704718B108B557
:104CC000FFF7F1FF08BD4FF0FF307047034600E0EB
:104CD0000C310868B0F1FF3F03D09842F8D18868E2
:104CE00070477047B0F1FF3F03D008B5FFF7EEFF04
:104CF00008BD7047884204D010B111B10020704740
:104D00000846704708B50A460146024801F030F9E6
:104D1000FEE700BF1C7600080F4B1A6842F0010244
:104D20001A6059680D4A0A405A601A6822F0847263
:104D300022F480321A601A6822F480221A605A68BB
:104D400022F4FE025A604FF41F029A60044B4FF0A7
:104D500000629A60704700BF001002400000FFF838
:104D600000ED00E00438704784B00268184B9A42A6
:104D700009D00368B3F1804F11D00268154B9A42F5
:104D800019D004B0704703F564439A6942F4006295
:104D90009A619B6903F400630193019BE9E703F5C2
:104DA0000433DA6942F00102DA61DB6903F00103DE
:104DB0000293029BE1E703F50333DA6942F0020252
:104DC000DA61DB6903F002030393039BD9E700BFB9
:104DD000002C01400004004002680F4B9A4208D0AA
:104DE0000368B3F1804F0AD002680C4B9A420CD092
:104DF00070470B4A936923F400639361F0E7084A14
:104E0000D36923F00103D361EEE7054AD36923F0A8
:104E10000203D361ECE700BF002C01400004004016
:104E200000100240B0F1FF3F11D008B50C4B984282
:104E300010D003F5943398420ED0B0F1804F0DD0CE
:104E400001460848FFF75EFF6FF00D0005E06FF0C8
:104E50000D0070471D2000E0192008BD1C20FCE754
:104E6000000400402C760008B0F1FF3F11D008B5D7
:104E70000C4B984210D003F5943398420ED0B0F109
:104E8000804F0DD001460848FFF73CFF6FF00D0042
:104E900005E06FF00D0070471D2000E01B2008BDED
:104EA0001C20FCE7000400402C76000870B5044686
:104EB000FFF758FF05462046FFF756FF2068FFF72B
:104EC000B1FF2A6DE96CFCF7D7FF2068FFF7AAFF56
:104ED000FCF7E2FF2068FFF7C7FF06462068FFF7F0
:104EE000A1FF864200D170BD2068FFF7BDFF2A6D8B
:104EF000E96CFCF7C1FF2068FFF7B6FFFCF7CCFFB9
:104F0000F1E70000B0F1FF3F10D008B50B4B98421D
:104F10000ED003F5943398420CD0B0F1804F0BD0F3
:104F200001460748FFF7EEFE002008BD002070474D
:104F30000120FAE70220F8E70120F6E7000400402C
:104F400044760008043870472DE9F04F85B001938E
:104F500000287DD00F461646044600F1040B6D492B
:104F6000406DFFF797FE80466B49A06DFFF792FEFC
:104F700005466A49E06DFFF78DFE82466849206E5E
:104F8000FFF788FE8146B8F1000F64D0A36DB3F13E
:104F9000FF3F01D0002D65D0E36DB3F1FF3F02D09C
:104FA000BAF1000F65D0236EB3F1FF3F02D0B9F123
:104FB000000F65D029464046FFF79CFE2060514611
:104FC000FFF798FE20604946FFF794FE2060002816
:104FD0005DD0544B984261D0534B984278D04D49A4
:104FE000606DFFF731FE1DB14B49A06DFFF72CFE40
:104FF000BAF1000F00F086804849E06DFFF724FE0B
:105000004FF48078B9F1000F05D048F40078444996
:10501000206EFFF719FE94F86520444B43F822B048
:1050200023686360A760E6600E9B2361019B636158
:105030000C23A361C4F81C8000222262012194F990
:105040006400FCF719FF002D5FD05846FEF717FAF1
:1050500005B0BDE8F08F364B9C42F9D0354800F0E2
:1050600087FFF5E7324B9C42F2D0334800F080FFD7
:10507000EEE72F4B9C42EBD0304800F079FFE7E79A
:105080002B4B9C42E4D02E4800F072FFE0E7284B07
:105090009C42DDD02B4800F06BFFD9E703F5584365
:1050A000DA6842F48042DA60DA6822F48042DA6038
:1050B0009A6942F480429A619B6903F480430293A7
:1050C000029B002384F86530252384F8643086E74A
:1050D00003F5E6331A6942F400321A611A6922F4C0
:1050E00000321A61DA6942F40032DA61DB6903F4F2
:1050F00000330393039B012384F86530262384F84F
:1051000064306CE74FF000087CE75846FEF7E7F99B
:105110009EE700BF0C790008DC780008B87800082A
:10512000947800080038014000440040BC0600208C
:1051300028000020607600088C760008B876000809
:10514000E87600081877000810B582B0084BDC6AD2
:1051500008492046FFF79EFD40B1074844650022FC
:10516000009213464FF41651FFF7EEFE02B010BD49
:10517000347C00080C7900082800002008B590F85D
:105180006520064B53F82200FEF75CFC00F022007D
:10519000222814BF0020012008BD00BFBC0600204B
:1051A00008B590F86520064B53F82200FEF74AFC3C
:1051B00000F02100212814BF0020012008BD00BFFD
:1051C000BC060020F8B506460D46FCF70DFA04466D
:1051D000324B93F86530012B17D8304B93F865208C
:1051E0002F4B53F82200FFF7ADFE0746002850D0A2
:1051F0003846FFF7D5FF00283FD0FCF7F5F9031B31
:10520000B3F57A7FF4D30020F8BD264BDF6A264938
:105210003846FFF73FFD002839D0204B002283F8A5
:10522000652005E01D4A92F86530013382F865304B
:105230001A4B93F86530012B11D8194A52F82330D4
:10524000002BEFD018493846FFF724FD134B93F895
:105250006520134B53F822301B688342E2D10F4B79
:1052600093F86530012BB8D9FFF76EFF0B4B93F81D
:105270006530012BB1D90020C6E74FF47A73AAB28A
:105280003146381DFEF761F928B92846BCE70020F1
:10529000BAE70020B8E70020B6E700BF28000020EA
:1052A000BC060020347C00080C790008A0B138B599
:1052B0000D460446FFF762FF88B994F866302B70FC
:1052C00094F86500012204F16601064B53F82000B2
:1052D000FEF7D9FB002038BD4FF0FF3070474FF08C
:1052E000FF30F8E7BC060020D0B138B50D460446C3
:1052F000FFF744FF00B138BDE56494F96400FCF7A2
:10530000CFFD94F86500012204F16601054B53F8C6
:105310002000FEF7B8FB94F96400FCF7BDFDEAE756
:10532000704700BFBC060020C8B138B5154604461A
:10533000016590F96400FCF7B3FD94F86500E16E37
:10534000B4F876309BB2AAB21944054B53F820004A
:10535000FEF75AF994F96400FCF79EFD38BD7047DA
:10536000BC06002068B108B5826DB2F1FF3F00D0E5
:1053700008BD90F86520034B53F82200FEF72CFB84
:10538000F6E77047BC06002068B108B5826DB2F13F
:10539000FF3F00D008BD90F86520034B53F8220072
:1053A000FEF735FBF6E77047BC06002008B5FFF7AF
:1053B000C9FD08B1C26C904708BD08B5FFF7C2FD32
:1053C00008B1026D904708BD30B585B0044603684A
:1053D0001A6812F0010F10D0002200921A68009291
:1053E0005B680093009B2046FFF7ACFD054610B1BB
:1053F000FFF7C4FE28B305B030BD1A6812F0020FE3
:1054000007D0002201921A6801925B680193019B08
:10541000E9E71A6812F0040F07D0002202921A6816
:1054200002925B680293029BDDE71A6812F0080F94
:10543000D9D0002203921A6803925B680393039BFE
:10544000D1E7012205F166012046FEF71CFBD2E7F9
:1054500008B52520FCF73CFD024B1868FEF77AF9E9
:1054600008BD00BFBC06002008B52620FCF730FDB3
:10547000024B586808B1FEF76DF908BDBC06002064
:1054800003460D4A10680344EFF30882934207D89D
:105490000A4A0B49521A934208D2074A13607047CE
:1054A000084B0C221A604FF0FF307047054B0C225E
:1054B0001A604FF0FF307047A40000200028002041
:1054C00000040000300900204FF0FF3070474FF417
:1054D00000534B6000207047012070470020704748
:1054E00000207047FEE70000024B16221A604FF0C2
:1054F000FF307047300900200120704700B595B09B
:10550000282200210DEB020001F004FD0023059389
:1055100006930793089309930193029303930493CB
:1055200001220A924FF480330B930E9202221192C1
:1055300012934FF4E01313930AA8FCF7E3FED8B9D3
:105540000F23059302210691002307934FF48062F5
:105550000892099305A8FDF707F990B91223019362
:105560004FF4004303930023049301A8FDF7F6F9D9
:1055700060B915B05DF804FB6E210748FFF7C2FB68
:10558000DEE77A210448FFF7BDFBE7E78121024807
:10559000FFF7B8FBEDE700BF54770008B0F808311B
:1055A0009BB24033B0F80421981A00F03F007047D6
:1055B000B0F808319BB2B0F80421934203D0D0F880
:1055C000FC30985C70474FF0FF30704790F8063120
:1055D000B0F80A01C0B2834202D2C01A0138704743
:1055E000C3F13F031844704700B583B08DF807102E
:1055F00003685B6801220DF10701984703B05DF86D
:1056000004FB10B582B004460DF10701FFF74EFE12
:1056100090B9B4F874309BB2013303F03F03B4F88F
:105620007020934208D09DF80700A16EB4F8742052
:1056300092B28854A4F8743002B010BDB0F876303D
:105640009BB2826F134403F03F03A0F87630B0F8AA
:105650007220B0F876309BB29A4201D10020704798
:1056600000B583B002F14003B0F8762092B29B1AE5
:105670005A4203F03F0302F03F0258BF53420093E7
:10568000B0F8762092B2C2F14002019293420AD859
:105690006B461A6882670549FFF746FE4FF0FF30F8
:1056A00003B05DF804FB01ABF3E700BF3D56000813
:1056B00091421AD0C0F8EC10C0F8E820C0F8F030E1
:1056C000009BC0F8F43000F11103C0F8FC30002357
:1056D000A0F80831A0F8043100F15102C0F800210F
:1056E000A0F80631A0F80A3170474FF0FF31C0F83A
:1056F000EC10E1E7F8B5067C06B9F8BD04460D46A6
:10570000FBF772FF074606E0FBF76EFFC01BA842DF
:105710000CD2002363B9B4F80621B4F80A319BB265
:105720009A42EAD0002DEFD10023F3E73346F1E7A8
:10573000B4F80A31A4F80631DFE708B50021FFF715
:10574000D9FF08BDCBB2222B08D8104A52F823301B
:1057500001F4E0610B43C0F8EC30704701F0C00287
:10576000C02A02D04FF0FF33F5E7C92B0BD801F068
:105770003F02074B53F82220044B53F8223001F428
:10578000E0610B43E7E74FF0FF33E4E7347C0008C8
:105790000C7C0008CBB2222B08D8104A52F82330D8
:1057A00001F4E0610B43C0F8E830704701F0C0023B
:1057B000C02A02D04FF0FF33F5E7C92B0BD801F018
:1057C0003F02074B53F82220044B53F8223001F4D8
:1057D000E0610B43E7E74FF0FF33E4E7347C000878
:1057E0000C7C000870B582B004461646254B036059
:1057F00000234360244B03604FF47A738360234B90
:1058000003604FF0FF33C0F8EC30214B984222D0B8
:105810000D462049204BD86AFFF73CFA854222D03A
:105820001E492846FFF74AFAC4F8EC0019492846F1
:10583000FFF744FAC4F8E800012E1DD04FF0FF3303
:105840000093D4F8E820D4F8EC102046FFF730FF9E
:10585000204602B070BD0A21FFF774FF0B212046DD
:10586000FFF798FFE8E70A212046FFF76BFF0B21BF
:105870002046FFF78FFFDFE74FF0FF33C4F8EC302F
:10588000DCE700BFF47C00080C7D0008C87C000841
:10589000C40600200C790008347C0008DC7800087D
:1058A00008B5002202490348FFF79CFF08BD00BF6E
:1058B00000380140C4060020D0F8EC00B0F1FF3FF2
:1058C00014BF0020012070472DE9F04182B004464A
:1058D0000F46904603689B6898470190B4F80631DC
:1058E000C3F140030093012323742046FFF7E4FF34
:1058F00010B194F810313BB923689B682046984753
:105900000028F9D046461EE0002384F8103104F147
:105910009400FFF727FDEFE7019A934237D301ABDD
:105920001D6823685B682A46394620469847761BDF
:105930002F4423689B68204698470190B4F80631AD
:10594000C3F140030093009BB342E5D3019AB242F6
:10595000E2D3B4F806319A19402A1AD8D4F80001D3
:1059600032463946184401F068FB3546B4F8063132
:10597000334403F03F03A4F8063104F194063046A3
:10598000FFF70EFCA8B1404602B0BDE8F0816B46BF
:10599000C6E7C3F14005D4F800012A463946184449
:1059A00001F04BFB721B7919D4F8000101F045FBA3
:1059B000DCE7C4F80C512A4602493046FFF7B4FC34
:1059C000E1E700BF3D56000810B50446FFF774FF3D
:1059D00030B12368DB682046984794F8103103B152
:1059E00010BD012384F8103104F19400FFF7CCFCC2
:1059F000F6E700002DE9F04383B004460E46C0F8F8
:105A0000141180F8112102F00703042B05D0062B96
:105A100005D0022B0FD1062502E0072500E008255E
:105A200002F03003302B08D012F0200F2AD00135BD
:105A30004FF4806804E00025F2E701354FF4C068B8
:105A400012F0080F21D04FF40059082D20D0092D55
:105A500020D04FF4D8711148FFF754F904F194079E
:105A6000CDF8009043462A4631463846FFF76CFA97
:105A70002046FFF7A9FF0A493846FFF735FC03B077
:105A8000BDE8F0834FF00008DAE74FF00009DCE7EB
:105A90000025E3E74FF48055E0E700BF9C7700085E
:105AA0000356000810B50446FFF78EFFB4F808212E
:105AB00092B2B4F804319A4208D0D4F8FC20D05CF9
:105AC000013303F03F03A4F8043110BD4FF0FF3061
:105AD000FBE708B5FFF7E4FE08BD002070477047FC
